:020000040000FA
:100000004815001041020000490200004B020000A8
:100010004D0200004F0200005102000000000000ED
:100020000000000000000000000000004901000086
:100030005502000000000000D10100002102000074
:100040005B0200005B0200005B0200005B0200003C
:100050005B0200005B0200005B0200005B0200002C
:100060005B0200005B0200005B0200005B0200001C
:100070005B0200005B0200005B0200005B0200000C
:100080005B0200005B0200005B0200005B020000FC
:100090005B0200005B0200005B0200005B020000EC
:1000A0005B0200005B0200005B0200005B020000DC
:1000B0005B0200005B0200005B0200005B020000CC
:1000C0005B0200005B0200005B020000DFF80CD066
:1000D00000F07AFD00480047670400004815001052
:1000E00080F309887047EFF309807047684680F312
:1000F000098804480078C00714BF0220032080F359
:1001000014887047D0200000DFF818C0EFF3058393
:100110001B0618BF6047EFF31483DB0708BF604777
:1001200000DF70477F160000DFF818C0EFF305838B
:100130001B0618BF6047EFF31483DB0708BF604757
:1001400000DF7047DD170000EFF30980816911F8C7
:10015000021C39BB90E80F10E047EFF3098C194BF4
:1001600093E80600914218D059B10CB44FF0010346
:1001700081F826302CE9F00FC1F82CC001F094FD75
:100180000CBC1A60D2F82CC0BCE8F00F92F82630F4
:100190008CF309881BB192F82500CCF800006FF0B1
:1001A000020E704710B5084A1268914209D8074CF0
:1001B00054F8214090E80F10A047EFF3098C8CE829
:1001C0000F0010BD28000010F8020000F802000027
:1001D00001F09CFC114B93E8060091421BD00CB43B
:1001E0004FF0000381F82630EFF3098C2CE9F00F73
:1001F000C1F82CC001F058FD0CBC1A60D2F82CC01C
:10020000BCE8F00F8CF3098892F826301BB192F805
:100210002530CCF800306FF0020E70472800001037
:1002200001F012FED6E7000001F028FA01F00CFE02
:10023000D0E70000FEE77047FEE770477047000018
:100240000648804706480047FEE7FEE7FEE7FEE770
:10025000FEE7FEE7FEE7FEE7FEE7FEE7C905000072
:10026000CD0000002DE9F05F0546002092469B4638
:1002700088460646814640241BE0284641464746BC
:10028000224600F0A6FA53465A46C01A914110D3AE
:1002900011461846224600F08DFA2D1A67EB010828
:1002A0004F4622460120002100F084FA17EB000996
:1002B0004E41201EA4F10104DFDC484631462A46A7
:1002C0004346BDE8F09F96230022114600F09ABAFB
:1002D00000F0004230F000400AD0C10D01F560711D
:1002E000C0F3160042EA0151C208400711437047AB
:1002F000002001467047000000000000FFFFFFFFE4
:1003000008B56A4D6A4E6B4C4FF6FF780027E068DF
:100310004246401CE060664869462830DFF898C1D4
:1003200000DF00980068FFF7D3FF02460B4663A189
:100330005F4800F0C9FC206805E02A7D9206FCD5E4
:100340002970401C2060315C0029F6D1276000989C
:100350005FA14268564800F0B7FC206805E02A7D9E
:100360009206FCD52970401C2060315C0029F6D132
:100370004F4827603C300099FFF7D6FEC7E74C484E
:1003800014212830DFF858C100DFDFF85881494CCC
:10039000554F00264FF4FA69A068401CA0604448FD
:1003A0003C30FFF7B1FE0546C7F8008030464946AD
:1003B0006660401C8842FCD360604FF00040796862
:1003C0008142FCD07868C0F30B102061FFF77BFFFF
:1003D000464900F069F9464900F098F9E061286063
:1003E0002069686032484FF6FF7229462830DFF8EE
:1003F00004C100DF1E20DFF800C100DFCCE70023CE
:100400001A460221AFF28900DFF8F0C000DF294C64
:1004100000231A4601216061AFF21B10DFF8DCC037
:1004200000DFA0610020DFF8D8C000DFFEE735481C
:1004300050F8C41F41F0080101603348016821F001
:10044000F0010160016841F050010160174883210B
:10045000017300210171A2210170032101730722A0
:10046000027241607047274810B550F8C41F41F42C
:10047000004101602449CA6842F04042CA600168F4
:1004800041F4805101600A48082214213C3000F0F8
:10049000F1FCFFF7CCFFFFF729FE00220A21AFF2A3
:1004A000A100DFF868C000DF002010BD00C00040E0
:1004B0004800001000000010511A00000A61646337
:1004C0005F696E3A20252E326620560D000000002E
:1004D0006164635F6F75743A20255820560D0000E3
:1004E000C118000020002001004003403333534076
:1004F00000F07F45AD19000089170000C91E0000FB
:10050000591F000000C00F4000C00240F51C000051
:1005100070B55D4CD4F888005C4D6FEA10608007C0
:10052000D4F80C0100F003000BD028B101283DD015
:10053000022840D003282BD1D4F804015449C0B27A
:100540003EE0002128B101280CD0022821D0032848
:100550001ED154F8880FC0F3074220684D49C0F3FC
:100560000E0007E054F8880FC0F3074220684A499C
:10057000C0F30E00401CA0FB01010023521CFFF73A
:1005800071FEE26F0023D2B2521CFFF76BFE2860AF
:1005900070BD54F8880FC0F3074220680904C0F307
:1005A0000E00401C41EA10410004E6E7D4F80401C3
:1005B0003A49C0B204E0D4F804014FF40041C0B29B
:1005C000401CB1FBF0F0E2E770B52F482021C0F8E5
:1005D000A011D0F8A011890604D500BFD0F8A01151
:1005E0004906FBD50325C0F804510023C0F8A83103
:1005F000C0F8AC310124C0F80C412949C0F884107E
:10060000AA22C0F88C205521C0F88C10C0F8804078
:10061000C0F88C20C0F88C10D0F888607601FBD52B
:10062000C0F88050C0F88C20C0F88C10D0F88860DA
:1006300016F0407FFAD02326C0F8A460C0F8AC20A2
:10064000C0F8AC10C0F8A040C0F8AC20C0F8AC10A6
:10065000D0F8A8406405FBD5C0F8A050C0F8AC2085
:10066000C0F8AC10D0F8A81011F4407FFAD00D49B2
:10067000C0F8C410C0F8C831016821F4704141F4D9
:100680008041016070BD000000C00F4020000010DC
:1006900000093D0000127A0000366E01001BB70011
:1006A00063000500DE87280480EA010210B502F02D
:1006B0000043400022D04A001FD0010E01EB12611E
:1006C000C0F35600C2F3560240F4000042F40002A8
:1006D000A0FB022000047F39140400D0401C50EA23
:1006E000124001D44000491EC2B20C0604EBD010E7
:1006F000401C4008802A02D003E0002010BD20F0FA
:100700000100002900DA0020184310BD30B480EA4F
:10071000010202F0004530F0004221F0004013D009
:1007200090B1C30DD40DC2F31601C0F31600E41A44
:1007300041F4000140F400027D34914201D3641C75
:1007400000E04900002C02DA30BC002070474FF472
:1007500000000023914201D3891A034340084FEA65
:100760004101F7D151B1914202D14FF0004105E072
:1007700002D24FF0010101E06FF0010103EBC45020
:10078000284430BC00F035B830B50B460146002097
:100790002022012409E021FA02F59D4205D303FA43
:1007A00002F5491B04FA02F52844151EA2F10102C4
:1007B000F1DC30BD202A04DB203A00FA02F10020EF
:1007C00070479140C2F1200320FA03F3194390408F
:1007D0007047202A04DB203A21FA02F000217047FA
:1007E00021FA02F3D040C2F1200291400843194699
:1007F00070470029A8BF7047401C490008BF20F07F
:100800000100704710B4B0FA80FC00FA0CF050EA16
:10081000010404BF10BC704749B1CCF1200421FA97
:1008200004F411FA0CF118BF012121430843A3EB92
:100830000C01CB1D4FEA00614FEA102042BF00209F
:1008400010BC704700EBC35010440029A4BF10BC7B
:100850007047401C490008BF20F0010010BC7047E1
:100860002DE9FE4F804681EA0300C00F0C46009040
:1008700021F0004123F00045B8EB0200A94105D268
:100880004046214690461C460B46024623F0004057
:10089000104347D0270DC7F30A00C3F30A51029053
:1008A000401A019040286BDAC3F3130040F4801B18
:1008B0000098924620B10023D2EB030A63EB0B0BA6
:1008C00001985946C0F140025046FFF773FF0646B3
:1008D0000D4650465946019A00F088F910EB080081
:1008E0006141002487EA115284EAE7731A4340D039
:1008F000009A62B3019A012A4FEA075215DC001BE5
:1009000061EB02014FF0004202EA0752CDE90042DA
:10091000001C41F5801132462B4600F086F903B0E9
:10092000BDE8F08F40462146F9E7001B61EB02016C
:10093000001C41F5801300185B412018A2F5001738
:1009400047EB030140EAD570B6196D4111E06D081F
:100950004FEA360645EAC0754FEA0752001B61EBC5
:100960000201001C41F5801149084FEA30000019CE
:10097000514132462B4603B0BDE8F04F00F048B974
:100980000098012240000023D0EB020263EBE073E9
:10099000009821464FEAE074B8EB000061EB0401D7
:1009A000E9E783F000435BE781F0004158E72DE978
:1009B000FE4F81EA030404F0004421F0004100945A
:1009C0004FF0000B23F0004350EA01045ED052EADE
:1009D00003045BD0C3F30A54C1F30A552C44A4F2B8
:1009E000F3340194A0FB0254C1F3130141F48011CC
:1009F000C3F3130343F4801301FB024400FB034ED3
:100A0000840A970A44EA815447EA8357A4FB07689B
:100A100002958D0A05FB07854FEA932C04FB0C54C5
:100A20002705029D4FEA065847EA1637B5EB080539
:100A30006EEB070C870E920E47EA811742EA83128B
:100A4000A7FB0201B6EB0B0164EB00042B0D43EA9C
:100A50000C335E1844EB1C50DA465146E7FB0201AA
:100A6000C5F313044FEA0B3343EA14534FEA04323D
:100A7000019C43EA0603A4F10C040294009CCDE916
:100A800000B400F0D2F803B0BDE8F08F00200146BA
:100A9000F9E72DE9F04D81EA030404F0004B21F061
:100AA000004514464FF0000A23F0004150EA0502C9
:100AB00020D054EA01021DD0C5F30A570246C5F3FF
:100AC0001303C1F31300C1F30A5640F4801543F435
:100AD0008013A7EB0608101BD64608F2FD3873EB0F
:100AE000050002D308F1010801E092185B41B8F15A
:100AF000000F03DA00200146BDE8F08D00204FF41E
:100B00008011064684460EE0171B73EB050705D3DC
:100B1000121B63EB050306434CEA010C49084FEA3C
:100B2000300092185B4150EA0107EDD152EA030010
:100B300012D082EA040083EA0501084305D0101BA5
:100B4000AB4106D20122002306E000224FF0004311
:100B500002E06FF0010253101AEB06004CEB085153
:100B600010EB0A0041EB0B01BDE8F04D00F050B86E
:100B7000C1F30A52C1F3130140F2FF3341F4801173
:100B80009A4202DA00200146704740F233439A420B
:100B9000A2F2334202DC5242FFF71BBEFFF70ABE4D
:100BA00030B5002904DB4FF00044404264EB010102
:100BB000002B04DB4FF00044524264EB03039942E4
:100BC00008BF904230BD0000064C074D06E0E068CB
:100BD00040F0010394E8070098471034AC42F6D384
:100BE000FFF778FAEC2000000C210000202A06DB39
:100BF000CB17203A41FA02F043EAE07306E041FAEB
:100C000002F3D040C2F120029140084319467047D8
:100C100010B5002B08DA401C41F1000192185B412D
:100C20001A4301D120F0010010BD2DE9F04D92468C
:100C30009B4611B1B1FA81F202E0B0FA80F22032A3
:100C40009046FFF7B7FD04460F4640EA0A0041EA26
:100C50000B0153465A46084313D0114653EA01008C
:100C600019D0C8F140025046FFF7B3FD05460E46C5
:100C7000504659464246FFF79DFD084305D00120E6
:100C800004E020463946BDE8F08D0020054346EAE1
:100C9000E0762C4337430A986305E40AA0EB08008A
:100CA0000022FD0A44EA47540A3002D500200146DA
:100CB000E9E7010510196941DDE9084500196941B5
:100CC000BDE8F04DA4E700000FB4084B10B504A92F
:100CD00002AA039800F0F2F8044602A9002000F0EE
:100CE00084FC204610BC5DF814FB0000EB150000EE
:100CF00002E008C8121F08C1002AFAD170477047E5
:100D0000002001E001C1121F002AFBD17047000042
:100D10002DE9FF5FDDE90220010DDDF838B0024367
:100D200018D044F61050A1F2FF3141430D140F9832
:100D3000012820D0A5EB0B00401C5FEA000A4FF011
:100D40000004474EDFF81C91A046504616D5CAF164
:100D5000000728E00F98012443A2012808D00021B1
:100D600000980F9BC0E90021C0E90243BDE8FF9F46
:100D70006FEA0B01F4E7CBF10000DEE7074612E073
:100D8000F80707D02246334640464946FFF70FFE94
:100D9000804689462246334610461946FFF707FE2D
:100DA00004460E467F10002FEAD1DDE90201BAF1B8
:100DB000000F42464B4602DAFFF7F9FD01E0FFF76C
:100DC00068FE04460E460022284BFFF7E9FE03D8D2
:100DD0004FF0FF30014607E00022254B2046314608
:100DE000FFF73EFDFFF7C4FE102409E0002C0ADBEC
:100DF0000A220023FFF736FA019B30321A55641E8F
:100E000050EA0102F2D1641C019AC4F111031444A6
:100E10000F9A012A03D0012208430DD10AE00843AA
:100E200004D000204FF0110B0F9080E7A3EB0B05CF
:100E30006D1E0DE05B4504DD4FF0000205F101057C
:100E400004E003DA4FF00002A5F10105002AECD01E
:100E500000980F99C0E90231C0E9004586E700001B
:100E6000000024400000F03F300000000000F0438C
:100E70000000E03F10B5002A06DA22F00042D21D41
:100E800022F00703102203E0D21C22F003030C22FD
:100E900013B19C188C4201D9012010BD02440144B9
:100EA0008360C0E90021C91AD018884202D81060B6
:100EB0000246F9E70020106010BD00002DE9FF4F49
:100EC00095B09B468946064600250FE2252877D136
:100ED00000242746F84A0121059400E0044316F84F
:100EE000013F203B01FA03F01042F7D130782A2865
:100EF00011D06FF02F033078A0F13002092A16D8F4
:100F0000059A44F0020402EB820203EB4202104411
:100F1000761C0590EFE759F8042B0592002A03DAB6
:100F2000504244F40054059044F00204761C30789A
:100F30002E2816D116F8010F44F004042A280DD0EB
:100F40006FF02F023078A0F13003092B09D807EB9E
:100F5000870302EB4303C718761CF3E759F8047BB9
:100F6000761C30786C280FD006DC4C2817D0682807
:100F70000DD06A2814D104E0742810D07A280FD13B
:100F80000DE044F400140AE044F4801401E044F459
:100F900040147278824202D104F58014761C761CCB
:100FA000307866280BD013DC582877D009DC00286D
:100FB00075D04528F6D04628F4D047281AD19DE1AF
:100FC00018E0632835D0642879D0652812D195E1DE
:100FD000702873D008DC6728F1D069286FD06E289C
:100FE0000DD06F2806D1B5E073282CD0752875D0A8
:100FF000782874D05A46179990476D1C75E1C4F350
:101000000250022809D003280DD0D9F80010042876
:101010000DD00D6009F1040967E1D9F80010EA1755
:10102000C1E90052F6E7D9F800100D80F2E70D7023
:10103000F0E719F8041B8DF8001000208DF801006E
:10104000EA46012003E059F804AB4FF0FF30610796
:101050004FF0000102D40DE008F101018846B942C9
:101060000FDA8045F8DB1AF808100029F4D108E0FF
:1010700008F1010188468142FADB1AF808100029BC
:10108000F6D105985B46A0EB080721463846179A2B
:1010900000F094FA284400EB080507E04DE029E150
:1010A0000DE01AF8010B5A4617999047B8F101085C
:1010B000F7D25B4621463846179A13E142E00A22EE
:1010C0000092C4F302524FF0000A022A08D059F8E5
:1010D00004CB032A4FEAEC710AD00DE029E02AE0A4
:1010E00009F1070121F00702F2E802C1914609E087
:1010F0000FFA8CFC4FEAEC71042A03D14FFA8CFCF6
:101100004FEAEC71002907DA0A460021DCF1000CF5
:1011100061EB02012D2202E0220504D52B228DF87D
:101120000420012203E0E20701D02022F7E79046E5
:1011300059E00A2102E010220DE010214FF0000AD0
:1011400000910BE010224FF0000A44F0040408273D
:10115000009203E008224FF0000A0092C4F302520A
:10116000022A05D059F804CB0021032A08D009E04F
:1011700009F1070121F00702F2E802C1914605E0FA
:101180001FFA8CFC042A01D10CF0FF0C4FF0000870
:10119000220728D5702806D0009B83F0100353EA5D
:1011A0000A0305D00EE040228DF80420012208E059
:1011B0005CEA010206D030228DF804208DF805008B
:1011C00002229046009B83F0080353EA0A030AD1E7
:1011D0005CEA010201D1620705D530228DF80420B6
:1011E0004FF001087F1E582804D034A003900EA8A9
:1011F00002900DE036A0F9E753466046009AFFF7EB
:1012000031F884460398825C0298401E0290027076
:101210005CEA0100F0D1029806A9081A00F1200A40
:10122000600702D524F4803400E00127574502DD31
:10123000A7EB0A0000E0002000EB0A0100900598EF
:101240004144401A0590E00306D45B462146179AB4
:10125000059800F0B3F90544002706E001A85A46B6
:10126000C05D179990476D1C7F1C4745F6DBE00376
:101270000CD55B462146179A059800F09FF9054466
:1012800004E030205A46179990476D1C0099481E7B
:1012900000900029F5DC08E0029802995A4600788F
:1012A000491C0291179990476D1CBAF10001AAF1EF
:1012B000010AF1DC65E10000092801003031323318
:1012C0003435363738396162636465660000000082
:1012D000303132333435363738394142434445466C
:1012E0000000000000F058F90544761C3078002812
:1012F0007FF4ECAD19B02846BDE8F08F620700D44A
:10130000062709F1070222F0070CFCE80223E14658
:1013100003F000485FEA080C02D00FF2702C0DE0D9
:101320005FEA045C02D50FF2682C07E05FEAC47C38
:1013300002D00FF2602C01E0AFF2700C4FF0FF38DA
:1013400023F00043CDF850C065280CD006DC4528BA
:1013500009D046281DD047283DD13DE0662818D049
:1013600067287ED138E00021112F01DB112000E039
:10137000781CCDE9000106A90EA8FFF7C9FCDDE93C
:101380000F010E9A03910021009207F1010A0491C6
:101390004DE04FF000400097CDE9011006A90EA8DE
:1013A000FFF7B6FCDDE90F0203920E9B11990022B4
:1013B000DDF80CA00093049211B9791C00EB010A2E
:1013C000B7EB0A0004D4C0F1FF3007F1010A049022
:1013D000AAEB0700019044E0012F00DA0127002169
:1013E000112F01DD112000E03846CDE9000106A9EA
:1013F0000EA8FFF78DFCDDE90F010E9A0391002185
:1014000004910092BA4621070CD40399514500DAA1
:101410008A46BAF1010F05DD009AAAF10101515C7B
:10142000302908D0B84202DA10F1040F06DA01219F
:10143000CDE9011015E0AAF10101E9E7002805DC7A
:10144000049901440491AAEB000102E0411C5145BA
:1014500000DD8A460499401A401C01904FF000407C
:101460000290200704D40198504501DBCDF8048098
:1014700000208DF84F0002980DF14F07B0F1004F9A
:1014800025D02B200E9002984FF0020800280CDA8D
:10149000404202902D200E9007E00A210298FFF7AB
:1014A00073F93031029007F8011DB8F10001A8F17D
:1014B0000108F2DC02980028EFD1791E0E9808701E
:1014C000307800F0200040F0450007F8020D12A827
:1014D000C01B00F107081498007800B1012000EB50
:1014E0000A01019801EBE07105984144401A401E41
:1014F0000590E00306D45B462146179A059800F054
:101500005DF805441498007818B15A461799904729
:101510006D1CE00324D55B462146179A059800F020
:101520004DF805441CE00498002807DBDDE90301C1
:10153000884203DD0098405C179901E0179930203C
:101540005A469047049805F10105401C0490019803
:10155000401E019004D12E205A46179990476D1CC9
:10156000BAF10001AAF1010ADDDC05E017F8010B70
:101570005A46179990476D1CB8F10001A8F101086F
:10158000F4DC5B462146179A0598ABE62D00000077
:101590002B000000200000002DE9F041044600254A
:1015A0001E461746880404D405E039462020B0477B
:1015B0006D1C641EF9D52846BDE8F0812DE9F04187
:1015C000044600251E469046C80301D5302700E09A
:1015D0002027880404D505E041463846B0476D1CF5
:1015E000641EF9D52846BDE8F0810A68531C0B60DB
:1015F0001070704708480068C0010BD507480068A4
:10160000C00707D0054880380068002802DA04497E
:101610000120087070470000FCED00E0800E00E043
:10162000340000104FF06042D36F002BFCD0436BAE
:10163000D367D36F002BFCD0C07840EA0120A2F81A
:101640007C0070474FF06041CA6F002AFCD081F8DF
:101650007C007047074801684FF0E020416100219D
:101660008161072101610448016841F07F41016007
:1016700040177047CC20000020ED00E0704750E894
:10168000001F31B10B6840E80032002AF7D108464C
:101690007047BFF32F8FFAE770B50D46002812D0C0
:1016A0004FF6FF71084C884204D22268014610466A
:1016B00000F06AFA20684570044800F09FF8BDE821
:1016C000704000F003BB70BD28000010181300101C
:1016D00070B51A4DE86800282ED0A88A401EA8824E
:1016E000002623E0A06838B161684160606810B1ED
:1016F000A16881606660A66010482146183800F035
:1017000067FAA08AA8826078042804D10C49E08A8C
:1017100009880844A0820120607084F82500E068F0
:10172000E860E06808B10561E6602661A88A0028E3
:1017300002D1EC68002CD5D170BD00003013001030
:101740003000001070B504000FD00D4DA1780126B7
:101750002868827891420CD900F056FA28684670C1
:101760002046BDE8704000F0B1BA064800F046F8E7
:10177000F7E766702146BDE87040024800F028BADD
:1017800028000010181300100321FFF785BF000088
:1017900010B50446008B084320836278618B062ACB
:1017A00016D0052A17D1084215D001EA000262833B
:1017B00088432083204600F031FA01206070022027
:1017C00084F825002146BDE81040034800F000BA27
:1017D00031EA0002ECD010BD18130010814202D390
:1017E00042688A4201D80120704750E8002F0A6001
:1017F00040E80012002AF8D10020704701464068F6
:1018000042684A600B780022022B05D0012B03D0DE
:10181000032B01D04260704743680BB1996042606E
:101820008260704770B50446002015462070012282
:101830006270A17084F824106060A060E060206194
:101840002062A082E0822083608384F8250084F8EF
:101850002600208D18B90548FFF711FF206329469F
:101860002046BDE8704000F003B8000030020010D0
:1018700010B5028D920803D10F4A1288C2F38D026F
:10188000036B03EB8202530700D5121F4FF08073E6
:1018900042E9021300231C46B2F1400242F8234001
:1018A0005B1C0E2BFAD3C3691362C2624163006BE7
:1018B0000249016010BD0000C8200000A52E5AE2B8
:1018C000012202700022427042600281428110397E
:1018D00082818908C18170472DE9F0410446406842
:1018E0000F464FF0000804F10C0620B16178022980
:1018F0001DD0A089E8B3A089E18988424ED2208911
:1019000004EB8000C0F81070D6E85F0F401C81B275
:10191000C6E8501F0028F7D12089401C80B22081E2
:10192000E189884201D1A4F80880BDE8F0814068CF
:1019300000B1012060702046FFF760FF80F825802D
:101940002289054604EB8202C0694146C2F81000B4
:10195000D6E85F0F401C82B2C6E8502F0028F7D1AE
:101960002089401C80B22081E28990420BD12181E4
:1019700009E0FFE72046FFF741FF0546C069042163
:10198000076085F8251001206870284600F046F9A8
:101990002946BDE8F041044800F01AB9BDE8F0411D
:1019A0000320FEF749BC0000181300102DE9F04198
:1019B00017460D468189254C4268002602B149B17F
:1019C000C389994229D1BFB120490968BAB100F051
:1019D000FFF81BE0FFF712FF0746C069056004200F
:1019E00087F82500384600F019F93846FFF7AAFEB7
:1019F000206880F8256027E00120BDE8F081416083
:101A000021684E60216888600121417020680821AA
:101A1000C5613846FFF740FEEEE7018900EB810122
:101A20000D6100F10C0100BFD1E85F2F521C93B291
:101A3000C1E8523F002AF7D10189491C89B20181CE
:101A4000C289914200D106810020D6E7280000100B
:101A50002DE9F041044680892B4E90460F46002523
:101A6000B8B3608904EB8000006908606089401C9D
:101A700080B26081E189884200D165816068E0B10F
:101A80002046FFF7BBFE80F825502189074604EB6E
:101A90008101C06908612089401C80B22081E189F0
:101AA000884200D12581384600F0B8F83846FFF763
:101AB00049FE306880F8255008E00C34D4E85F0F08
:101AC000401E81B2C4E8501F0028F7D10020BDE8B5
:101AD000F081FFE7B8F1000F07D00B496068096893
:101AE00028B1204600F074F806E00120EFE76160BD
:101AF000306845603068846008214046FFF7CCFDBF
:101B00003068C761F1E700002800001070B51B487D
:101B1000012102685170006800F076F8184D6C7869
:101B200018E000BF05EBC40148680278EAB1012A59
:101B300020D000F09FF8E878641C844200D1002493
:101B40000F48801CD0E84F1F491EC9B2C0E8421F91
:101B5000002AF7D1A8780028E4D16C700948FFF773
:101B60004DFEBDE8704000F0B1B8098989B2FFF7B9
:101B70000FFEE0E78968FFF7AFFEDCE72800001002
:101B80004012001018130010104A10B5D368ABB102
:101B900013469B8A03E08CB12246A48A2344D4686E
:101BA0008B42F8D3C460D0600261C46804B1206184
:101BB000591A8182908A401A908210BD0024C46014
:101BC000D060C91A02619182848210BD3013001066
:101BD00030B502780023022A03D0012A01D0032A5B
:101BE00000D101238C7800E01046426812B195784C
:101BF000A542F9D24A6041601BB102B19160886090
:101C000030BD0020FBE7000003494A684260002223
:101C100082604860704700001813001010B5016919
:101C200000290ED0C268CA60C36800223BB18B8A0B
:101C3000848A23448B82C3681961C26000E08A826F
:101C4000026110BD816839B142684A60416800296B
:101C500001D0806888607047054906E04A68824282
:101C600002D140684860704711460029F6D170479C
:101C70001813001010B5416879B1FFF7BFFD044695
:101C8000FFF7CCFF01206070032084F82500214677
:101C9000BDE810400348FFF79BBF4188491C4180C5
:101CA00010BD00001813001006480068D0E90B10A2
:101CB000814203D300680449884202D00120FEF724
:101CC000BBBA704728000010A52E5AE2074902222D
:101CD00048604270064A1278002A05D006C98A4236
:101CE00002D0C078FFF7AEBC70470000280000109B
:101CF000340000102DE9F047164688468146FFF76C
:101D000079FC002004463E4A3E4902E042F8204069
:101D1000401C0B889842F9D33B48382201883B4845
:101D2000FFF7A8F83A48008880B240F000423948EE
:101D300001683948FFF79EF838480822018838487A
:101D40000068FFF797F8374FFF25374AFD703C854D
:101D500000213846FFF766FD3448042101704460D5
:101D600033480170C46004618482F86A2030FEF751
:101D7000B7F9304831490760022078702E48047066
:101D800044700978C170FEF758FA2D48016841F493
:101D90007F0101600068290601EA00202849C0434C
:101DA0001439B0FA80F00968C0F10800C1F30221CB
:101DB000814200DB481C2249091F0B686FF08072CA
:101DC000824063F317020A60FFF744FC1D490028B4
:101DD00008600DDB00F1E02181F8005400F01F02E3
:101DE000012191404011800000F1E020C0F8001175
:101DF000324641464846BDE8F047002300F064B84B
:101E0000C4120010C4200000DC2000009800001064
:101E1000C8200000E020000030020010E620000092
:101E200024000010E012001035020000181300100A
:101E3000301300102800001040120010E4200000B1
:101E400020ED00E03C0000100C4810B502680121B4
:101E500051700068FFF7D8FEFEF7F0F908480168F6
:101E6000491C0160FFF734FC00F00EF80548FFF74D
:101E7000C5FCBDE81040FFF729BF00002800001096
:101E8000300000101813001070B50D4C20680028A9
:101E900015D0A0880B4E401EA0800AE0E888FEF70F
:101EA000CAF9A888A0802868206029463068FFF712
:101EB00095FCA088002802D12568002DEED170BDC8
:101EC00040000010240000102DE9F0411E46174686
:101ED00080460C4611F0FF0F00D14C1C1948FFF74B
:101EE000CEFB05002BD0200A2F632885E1B24246A5
:101EF0002846EE61FFF796FC01241348134905E0DC
:101F000000EB840252F8042C22B1641C0A8894422B
:101F1000F6D9002400EB8400E6B240F8045C0C48DB
:101F2000EE70007818B101212846FFF77BFB2846A8
:101F3000FFF708FC0748006880F825602046BDE8E8
:101F4000F081000098000010C4120010C4200000AE
:101F500034000010280000102DE9F05F544DDFF828
:101F600048B1DFF848A129684FF000084FF0050993
:101F7000012610B1CA7882423FD1474681F80180DC
:101F8000FEF7B1F82968C862FFF78EFE2868B046F0
:101F9000046A18E06068A8B12046FFF72FFC0646E7
:101FA00080F82590FFF73AFE86F8018031464148D7
:101FB000FFF70EFEA4F80280A660316AE160346289
:101FC000E46800E0E468002CE4D12868C2780AEBF9
:101FD000820141F8047C016B3748FFF7FFFB28685A
:101FE00007639BF8001011B10021FFF71BFB33487A
:101FF0002968FFF7F3FB2F6051E0314909888842D7
:102000000ED80AEB800757F8045C4DB12846FFF75D
:1020100019FE2846FFF702FECA46B1462C6A1BE0AD
:10202000FF20BDE8F09F6068A8B12046FFF7E6FBFF
:10203000064680F825A0FFF7F1FD86F801903146AD
:102040001C48FFF7C5FDA4F80290A660316AE16064
:102050003462E46800E0E468002CE4D147F8048CC2
:1020600044461548296BFFF7B9FB2C639BF8000029
:1020700018B100212846FFF7D5FA29460F48FFF787
:10208000ADFB0C4840688278094801688B789A4219
:1020900008D981F8019001680648FFF799FD0020F2
:1020A000FFF750FB0020BCE734000010C412001002
:1020B00028000010181300103002001098000010C3
:1020C000C420000007000000000200013F420F0092
:1020D0000000000010270000000000009401000034
:1020E00010100000100000004B0004000C21000044
:1020F0000000001048000000F00C00005421000017
:102100004800001000150000000D00000000000055
:1021100000000000000000000000000000000000BF
:1021200000000000000000000000000000E1F505D4
:10213000000000000000000000000000000000009F
:10214000000000000000000000000000000000008F
:04215000000000008B
:04000005000000CD2A
:00000001FF
